{
  "address": "0xe7f1725E7734CE288F8367e1Bb143E90bb3F0512",
  "abi": [
    {
      "inputs": [
        {
          "internalType": "address",
          "name": "priceFeedAddress",
          "type": "address"
        }
      ],
      "stateMutability": "nonpayable",
      "type": "constructor"
    },
    {
      "inputs": [],
      "name": "FundMe__DidNotSendEnoughEth",
      "type": "error"
    },
    {
      "inputs": [],
      "name": "FundMe__Unauthorized",
      "type": "error"
    },
    {
      "stateMutability": "payable",
      "type": "fallback"
    },
    {
      "inputs": [],
      "name": "MIN_USD",
      "outputs": [
        {
          "internalType": "uint256",
          "name": "",
          "type": "uint256"
        }
      ],
      "stateMutability": "view",
      "type": "function"
    },
    {
      "inputs": [],
      "name": "fund",
      "outputs": [],
      "stateMutability": "payable",
      "type": "function"
    },
    {
      "inputs": [
        {
          "internalType": "address",
          "name": "",
          "type": "address"
        }
      ],
      "name": "funderBalance",
      "outputs": [
        {
          "internalType": "uint256",
          "name": "",
          "type": "uint256"
        }
      ],
      "stateMutability": "view",
      "type": "function"
    },
    {
      "inputs": [
        {
          "internalType": "uint256",
          "name": "",
          "type": "uint256"
        }
      ],
      "name": "funders",
      "outputs": [
        {
          "internalType": "address",
          "name": "",
          "type": "address"
        }
      ],
      "stateMutability": "view",
      "type": "function"
    },
    {
      "inputs": [],
      "name": "owner",
      "outputs": [
        {
          "internalType": "address",
          "name": "",
          "type": "address"
        }
      ],
      "stateMutability": "view",
      "type": "function"
    },
    {
      "inputs": [],
      "name": "priceFeed",
      "outputs": [
        {
          "internalType": "contract AggregatorV3Interface",
          "name": "",
          "type": "address"
        }
      ],
      "stateMutability": "view",
      "type": "function"
    },
    {
      "inputs": [],
      "name": "withdraw",
      "outputs": [],
      "stateMutability": "nonpayable",
      "type": "function"
    },
    {
      "stateMutability": "payable",
      "type": "receive"
    }
  ],
  "transactionHash": "0xb26966dd24c83866b4bfad2e29907a348601cf217e1c60767b5168c6e5e282de",
  "args": [
    "0x5FbDB2315678afecb367f032d93F642f64180aa3"
  ],
  "numDeployments": 1,
  "solcInputHash": "aae46f4bd11a8d836976bf24a5d84d72",
  "bytecode": "0x60c060405234801561001057600080fd5b50604051610d43380380610d4383398181016040528101906100329190610103565b3373ffffffffffffffffffffffffffffffffffffffff1660808173ffffffffffffffffffffffffffffffffffffffff16815250508073ffffffffffffffffffffffffffffffffffffffff1660a08173ffffffffffffffffffffffffffffffffffffffff168152505050610130565b600080fd5b600073ffffffffffffffffffffffffffffffffffffffff82169050919050565b60006100d0826100a5565b9050919050565b6100e0816100c5565b81146100eb57600080fd5b50565b6000815190506100fd816100d7565b92915050565b600060208284031215610119576101186100a0565b5b6000610127848285016100ee565b91505092915050565b60805160a051610be0610163600039600081816101b701526104c60152600081816102e601526104ea0152610be06000f3fe6080604052600436106100745760003560e01c80638da5cb5b1161004e5780638da5cb5b146100fa578063b60d428814610125578063d5be3c7b1461012f578063dc0d3dff1461016c57610083565b8063213dbea21461008d5780633ccfd60b146100b8578063741bef1a146100cf57610083565b36610083576100816101a9565b005b61008b6101a9565b005b34801561009957600080fd5b506100a26102d8565b6040516100af9190610643565b60405180910390f35b3480156100c457600080fd5b506100cd6102e4565b005b3480156100db57600080fd5b506100e46104c4565b6040516100f191906106dd565b60405180910390f35b34801561010657600080fd5b5061010f6104e8565b60405161011c9190610719565b60405180910390f35b61012d6101a9565b005b34801561013b57600080fd5b5061015660048036038101906101519190610765565b61050c565b6040516101639190610643565b60405180910390f35b34801561017857600080fd5b50610193600480360381019061018e91906107be565b610524565b6040516101a09190610719565b60405180910390f35b678ac7230489e800006101e57f00000000000000000000000000000000000000000000000000000000000000003461056390919063ffffffff16565b111561021d576040517fedd89bb500000000000000000000000000000000000000000000000000000000815260040160405180910390fd5b6000339080600181540180825580915050600190039060005260206000200160009091909190916101000a81548173ffffffffffffffffffffffffffffffffffffffff021916908373ffffffffffffffffffffffffffffffffffffffff16021790555034600160003373ffffffffffffffffffffffffffffffffffffffff1673ffffffffffffffffffffffffffffffffffffffff16815260200190815260200160002060008282546102cf919061081a565b92505081905550565b678ac7230489e8000081565b7f000000000000000000000000000000000000000000000000000000000000000073ffffffffffffffffffffffffffffffffffffffff163373ffffffffffffffffffffffffffffffffffffffff1614610369576040517ff8362c2700000000000000000000000000000000000000000000000000000000815260040160405180910390fd5b60005b60008054905081101561041457600080828154811061038e5761038d61084e565b5b9060005260206000200160009054906101000a900473ffffffffffffffffffffffffffffffffffffffff1690506000600160008373ffffffffffffffffffffffffffffffffffffffff1673ffffffffffffffffffffffffffffffffffffffff1681526020019081526020016000208190555050808061040c9061087d565b91505061036c565b5060003373ffffffffffffffffffffffffffffffffffffffff164760405161043b906108f6565b60006040518083038185875af1925050503d8060008114610478576040519150601f19603f3d011682016040523d82523d6000602084013e61047d565b606091505b50509050806104c1576040517f08c379a00000000000000000000000000000000000000000000000000000000081526004016104b890610968565b60405180910390fd5b50565b7f000000000000000000000000000000000000000000000000000000000000000081565b7f000000000000000000000000000000000000000000000000000000000000000081565b60016020528060005260406000206000915090505481565b6000818154811061053457600080fd5b906000526020600020016000915054906101000a900473ffffffffffffffffffffffffffffffffffffffff1681565b60008061056f83610599565b9050670de0b6b3a764000084826105869190610988565b61059091906109f9565b91505092915050565b6000808273ffffffffffffffffffffffffffffffffffffffff1663feaf968c6040518163ffffffff1660e01b815260040160a060405180830381865afa1580156105e7573d6000803e3d6000fd5b505050506040513d601f19601f8201168201806040525081019061060b9190610ab7565b5050509150506402540be400816106229190610b32565b915050919050565b6000819050919050565b61063d8161062a565b82525050565b60006020820190506106586000830184610634565b92915050565b600073ffffffffffffffffffffffffffffffffffffffff82169050919050565b6000819050919050565b60006106a361069e6106998461065e565b61067e565b61065e565b9050919050565b60006106b582610688565b9050919050565b60006106c7826106aa565b9050919050565b6106d7816106bc565b82525050565b60006020820190506106f260008301846106ce565b92915050565b60006107038261065e565b9050919050565b610713816106f8565b82525050565b600060208201905061072e600083018461070a565b92915050565b600080fd5b610742816106f8565b811461074d57600080fd5b50565b60008135905061075f81610739565b92915050565b60006020828403121561077b5761077a610734565b5b600061078984828501610750565b91505092915050565b61079b8161062a565b81146107a657600080fd5b50565b6000813590506107b881610792565b92915050565b6000602082840312156107d4576107d3610734565b5b60006107e2848285016107a9565b91505092915050565b7f4e487b7100000000000000000000000000000000000000000000000000000000600052601160045260246000fd5b60006108258261062a565b91506108308361062a565b9250828201905080821115610848576108476107eb565b5b92915050565b7f4e487b7100000000000000000000000000000000000000000000000000000000600052603260045260246000fd5b60006108888261062a565b91507fffffffffffffffffffffffffffffffffffffffffffffffffffffffffffffffff82036108ba576108b96107eb565b5b600182019050919050565b600081905092915050565b50565b60006108e06000836108c5565b91506108eb826108d0565b600082019050919050565b6000610901826108d3565b9150819050919050565b600082825260208201905092915050565b7f43616c6c204661696c6564000000000000000000000000000000000000000000600082015250565b6000610952600b8361090b565b915061095d8261091c565b602082019050919050565b6000602082019050818103600083015261098181610945565b9050919050565b60006109938261062a565b915061099e8361062a565b92508282026109ac8161062a565b915082820484148315176109c3576109c26107eb565b5b5092915050565b7f4e487b7100000000000000000000000000000000000000000000000000000000600052601260045260246000fd5b6000610a048261062a565b9150610a0f8361062a565b925082610a1f57610a1e6109ca565b5b828204905092915050565b600069ffffffffffffffffffff82169050919050565b610a4981610a2a565b8114610a5457600080fd5b50565b600081519050610a6681610a40565b92915050565b6000819050919050565b610a7f81610a6c565b8114610a8a57600080fd5b50565b600081519050610a9c81610a76565b92915050565b600081519050610ab181610792565b92915050565b600080600080600060a08688031215610ad357610ad2610734565b5b6000610ae188828901610a57565b9550506020610af288828901610a8d565b9450506040610b0388828901610aa2565b9350506060610b1488828901610aa2565b9250506080610b2588828901610a57565b9150509295509295909350565b6000610b3d82610a6c565b9150610b4883610a6c565b9250828202610b5681610a6c565b91507f80000000000000000000000000000000000000000000000000000000000000008414600084121615610b8e57610b8d6107eb565b5b8282058414831517610ba357610ba26107eb565b5b509291505056fea2646970667358221220ac27be65323004f52c17a6e9ee7a69bfaa7e8c8d1e2f253e4dbeee75f407775264736f6c63430008130033",
  "devdoc": {
    "kind": "dev",
    "methods": {},
    "version": 1
  },
  "userdoc": {
    "kind": "user",
    "methods": {},
    "version": 1
  },
  "storageLayout": {
    "storage": [
      {
        "astId": 64,
        "contract": "contracts/FundMe.sol:FundMe",
        "label": "funders",
        "offset": 0,
        "slot": "0",
        "type": "t_array(t_address)dyn_storage"
      },
      {
        "astId": 68,
        "contract": "contracts/FundMe.sol:FundMe",
        "label": "funderBalance",
        "offset": 0,
        "slot": "1",
        "type": "t_mapping(t_address,t_uint256)"
      }
    ],
    "types": {
      "t_address": {
        "encoding": "inplace",
        "label": "address",
        "numberOfBytes": "20"
      },
      "t_array(t_address)dyn_storage": {
        "base": "t_address",
        "encoding": "dynamic_array",
        "label": "address[]",
        "numberOfBytes": "32"
      },
      "t_mapping(t_address,t_uint256)": {
        "encoding": "mapping",
        "key": "t_address",
        "label": "mapping(address => uint256)",
        "numberOfBytes": "32",
        "value": "t_uint256"
      },
      "t_uint256": {
        "encoding": "inplace",
        "label": "uint256",
        "numberOfBytes": "32"
      }
    }
  }
}